{
	"data": {
		"bytecode": {
			"linkReferences": {},
			"object": "6080604052348015600e575f80fd5b50335f806101000a81548173ffffffffffffffffffffffffffffffffffffffff021916908373ffffffffffffffffffffffffffffffffffffffff160217905550610f538061005b5f395ff3fe608060405234801561000f575f80fd5b506004361061004a575f3560e01c8063010bc33c1461004e5780638ada7007146100805780638da5cb5b1461009c578063dddf66c6146100ba575b5f80fd5b61006860048036038101906100639190610657565b6100ea565b60405161007793929190610714565b60405180910390f35b61009a6004803603810190610095919061087c565b6101b0565b005b6100a46103ec565b6040516100b191906108f7565b60405180910390f35b6100d460048036038101906100cf9190610910565b61040f565b6040516100e19190610a9a565b60405180910390f35b6001602052815f5260405f208181548110610103575f80fd5b905f5260205f2090600302015f9150915050805f01549080600101549080600201805461012f90610ae7565b80601f016020809104026020016040519081016040528092919081815260200182805461015b90610ae7565b80156101a65780601f1061017d576101008083540402835291602001916101a6565b820191905f5260205f20905b81548152906001019060200180831161018957829003601f168201915b5050505050905083565b5f8054906101000a900473ffffffffffffffffffffffffffffffffffffffff1673ffffffffffffffffffffffffffffffffffffffff163373ffffffffffffffffffffffffffffffffffffffff161461023d576040517f08c379a000000000000000000000000000000000000000000000000000000000815260040161023490610b87565b60405180910390fd5b5f73ffffffffffffffffffffffffffffffffffffffff168373ffffffffffffffffffffffffffffffffffffffff16036102ab576040517f08c379a00000000000000000000000000000000000000000000000000000000081526004016102a290610bef565b60405180910390fd5b5f82116102ed576040517f08c379a00000000000000000000000000000000000000000000000000000000081526004016102e490610c57565b60405180910390fd5b60015f8473ffffffffffffffffffffffffffffffffffffffff1673ffffffffffffffffffffffffffffffffffffffff1681526020019081526020015f20604051806060016040528084815260200142815260200183815250908060018154018082558091505060019003905f5260205f2090600302015f909190919091505f820151815f01556020820151816001015560408201518160020190816103929190610e12565b5050508273ffffffffffffffffffffffffffffffffffffffff167f7b17d2b21d26fd2c5216c25a3de30bf791de2bf06a5ef118eaaf268e708429f98383426040516103df93929190610ee1565b60405180910390a2505050565b5f8054906101000a900473ffffffffffffffffffffffffffffffffffffffff1681565b60605f73ffffffffffffffffffffffffffffffffffffffff168273ffffffffffffffffffffffffffffffffffffffff160361047f576040517f08c379a000000000000000000000000000000000000000000000000000000000815260040161047690610bef565b60405180910390fd5b60015f8373ffffffffffffffffffffffffffffffffffffffff1673ffffffffffffffffffffffffffffffffffffffff1681526020019081526020015f20805480602002602001604051908101604052809291908181526020015f905b828210156105ae578382905f5260205f2090600302016040518060600160405290815f82015481526020016001820154815260200160028201805461051f90610ae7565b80601f016020809104026020016040519081016040528092919081815260200182805461054b90610ae7565b80156105965780601f1061056d57610100808354040283529160200191610596565b820191905f5260205f20905b81548152906001019060200180831161057957829003601f168201915b505050505081525050815260200190600101906104db565b505050509050919050565b5f604051905090565b5f80fd5b5f80fd5b5f73ffffffffffffffffffffffffffffffffffffffff82169050919050565b5f6105f3826105ca565b9050919050565b610603816105e9565b811461060d575f80fd5b50565b5f8135905061061e816105fa565b92915050565b5f819050919050565b61063681610624565b8114610640575f80fd5b50565b5f813590506106518161062d565b92915050565b5f806040838503121561066d5761066c6105c2565b5b5f61067a85828601610610565b925050602061068b85828601610643565b9150509250929050565b61069e81610624565b82525050565b5f81519050919050565b5f82825260208201905092915050565b8281835e5f83830152505050565b5f601f19601f8301169050919050565b5f6106e6826106a4565b6106f081856106ae565b93506107008185602086016106be565b610709816106cc565b840191505092915050565b5f6060820190506107275f830186610695565b6107346020830185610695565b818103604083015261074681846106dc565b9050949350505050565b5f80fd5b5f80fd5b7f4e487b71000000000000000000000000000000000000000000000000000000005f52604160045260245ffd5b61078e826106cc565b810181811067ffffffffffffffff821117156107ad576107ac610758565b5b80604052505050565b5f6107bf6105b9565b90506107cb8282610785565b919050565b5f67ffffffffffffffff8211156107ea576107e9610758565b5b6107f3826106cc565b9050602081019050919050565b828183375f83830152505050565b5f61082061081b846107d0565b6107b6565b90508281526020810184848401111561083c5761083b610754565b5b610847848285610800565b509392505050565b5f82601f83011261086357610862610750565b5b813561087384826020860161080e565b91505092915050565b5f805f60608486031215610893576108926105c2565b5b5f6108a086828701610610565b93505060206108b186828701610643565b925050604084013567ffffffffffffffff8111156108d2576108d16105c6565b5b6108de8682870161084f565b9150509250925092565b6108f1816105e9565b82525050565b5f60208201905061090a5f8301846108e8565b92915050565b5f60208284031215610925576109246105c2565b5b5f61093284828501610610565b91505092915050565b5f81519050919050565b5f82825260208201905092915050565b5f819050602082019050919050565b61096d81610624565b82525050565b5f82825260208201905092915050565b5f61098d826106a4565b6109978185610973565b93506109a78185602086016106be565b6109b0816106cc565b840191505092915050565b5f606083015f8301516109d05f860182610964565b5060208301516109e36020860182610964565b50604083015184820360408601526109fb8282610983565b9150508091505092915050565b5f610a1383836109bb565b905092915050565b5f602082019050919050565b5f610a318261093b565b610a3b8185610945565b935083602082028501610a4d85610955565b805f5b85811015610a885784840389528151610a698582610a08565b9450610a7483610a1b565b925060208a01995050600181019050610a50565b50829750879550505050505092915050565b5f6020820190508181035f830152610ab28184610a27565b905092915050565b7f4e487b71000000000000000000000000000000000000000000000000000000005f52602260045260245ffd5b5f6002820490506001821680610afe57607f821691505b602082108103610b1157610b10610aba565b5b50919050565b7f4f6e6c7920746865206f776e65722063616e20616c6c6f636174652066756e645f8201527f7300000000000000000000000000000000000000000000000000000000000000602082015250565b5f610b716021836106ae565b9150610b7c82610b17565b604082019050919050565b5f6020820190508181035f830152610b9e81610b65565b9050919050565b7f496e76616c696420726563697069656e742061646472657373000000000000005f82015250565b5f610bd96019836106ae565b9150610be482610ba5565b602082019050919050565b5f6020820190508181035f830152610c0681610bcd565b9050919050565b7f416d6f756e74206d7573742062652067726561746572207468616e207a65726f5f82015250565b5f610c416020836106ae565b9150610c4c82610c0d565b602082019050919050565b5f6020820190508181035f830152610c6e81610c35565b9050919050565b5f819050815f5260205f209050919050565b5f6020601f8301049050919050565b5f82821b905092915050565b5f60088302610cd17fffffffffffffffffffffffffffffffffffffffffffffffffffffffffffffffff82610c96565b610cdb8683610c96565b95508019841693508086168417925050509392505050565b5f819050919050565b5f610d16610d11610d0c84610624565b610cf3565b610624565b9050919050565b5f819050919050565b610d2f83610cfc565b610d43610d3b82610d1d565b848454610ca2565b825550505050565b5f90565b610d57610d4b565b610d62818484610d26565b505050565b5b81811015610d8557610d7a5f82610d4f565b600181019050610d68565b5050565b601f821115610dca57610d9b81610c75565b610da484610c87565b81016020851015610db3578190505b610dc7610dbf85610c87565b830182610d67565b50505b505050565b5f82821c905092915050565b5f610dea5f1984600802610dcf565b1980831691505092915050565b5f610e028383610ddb565b9150826002028217905092915050565b610e1b826106a4565b67ffffffffffffffff811115610e3457610e33610758565b5b610e3e8254610ae7565b610e49828285610d89565b5f60209050601f831160018114610e7a575f8415610e68578287015190505b610e728582610df7565b865550610ed9565b601f198416610e8886610c75565b5f5b82811015610eaf57848901518255600182019150602085019450602081019050610e8a565b86831015610ecc5784890151610ec8601f891682610ddb565b8355505b6001600288020188555050505b505050505050565b5f606082019050610ef45f830186610695565b8181036020830152610f0681856106dc565b9050610f156040830184610695565b94935050505056fea2646970667358221220f4f70b7078987ea638c00db4e352d1cae0cc7fb2c3e1b8c7b6a89c66a07d00cc64736f6c634300081a0033",
			"opcodes": "PUSH1 0x80 PUSH1 0x40 MSTORE CALLVALUE DUP1 ISZERO PUSH1 0xE JUMPI PUSH0 DUP1 REVERT JUMPDEST POP CALLER PUSH0 DUP1 PUSH2 0x100 EXP DUP2 SLOAD DUP2 PUSH20 0xFFFFFFFFFFFFFFFFFFFFFFFFFFFFFFFFFFFFFFFF MUL NOT AND SWAP1 DUP4 PUSH20 0xFFFFFFFFFFFFFFFFFFFFFFFFFFFFFFFFFFFFFFFF AND MUL OR SWAP1 SSTORE POP PUSH2 0xF53 DUP1 PUSH2 0x5B PUSH0 CODECOPY PUSH0 RETURN INVALID PUSH1 0x80 PUSH1 0x40 MSTORE CALLVALUE DUP1 ISZERO PUSH2 0xF JUMPI PUSH0 DUP1 REVERT JUMPDEST POP PUSH1 0x4 CALLDATASIZE LT PUSH2 0x4A JUMPI PUSH0 CALLDATALOAD PUSH1 0xE0 SHR DUP1 PUSH4 0x10BC33C EQ PUSH2 0x4E JUMPI DUP1 PUSH4 0x8ADA7007 EQ PUSH2 0x80 JUMPI DUP1 PUSH4 0x8DA5CB5B EQ PUSH2 0x9C JUMPI DUP1 PUSH4 0xDDDF66C6 EQ PUSH2 0xBA JUMPI JUMPDEST PUSH0 DUP1 REVERT JUMPDEST PUSH2 0x68 PUSH1 0x4 DUP1 CALLDATASIZE SUB DUP2 ADD SWAP1 PUSH2 0x63 SWAP2 SWAP1 PUSH2 0x657 JUMP JUMPDEST PUSH2 0xEA JUMP JUMPDEST PUSH1 0x40 MLOAD PUSH2 0x77 SWAP4 SWAP3 SWAP2 SWAP1 PUSH2 0x714 JUMP JUMPDEST PUSH1 0x40 MLOAD DUP1 SWAP2 SUB SWAP1 RETURN JUMPDEST PUSH2 0x9A PUSH1 0x4 DUP1 CALLDATASIZE SUB DUP2 ADD SWAP1 PUSH2 0x95 SWAP2 SWAP1 PUSH2 0x87C JUMP JUMPDEST PUSH2 0x1B0 JUMP JUMPDEST STOP JUMPDEST PUSH2 0xA4 PUSH2 0x3EC JUMP JUMPDEST PUSH1 0x40 MLOAD PUSH2 0xB1 SWAP2 SWAP1 PUSH2 0x8F7 JUMP JUMPDEST PUSH1 0x40 MLOAD DUP1 SWAP2 SUB SWAP1 RETURN JUMPDEST PUSH2 0xD4 PUSH1 0x4 DUP1 CALLDATASIZE SUB DUP2 ADD SWAP1 PUSH2 0xCF SWAP2 SWAP1 PUSH2 0x910 JUMP JUMPDEST PUSH2 0x40F JUMP JUMPDEST PUSH1 0x40 MLOAD PUSH2 0xE1 SWAP2 SWAP1 PUSH2 0xA9A JUMP JUMPDEST PUSH1 0x40 MLOAD DUP1 SWAP2 SUB SWAP1 RETURN JUMPDEST PUSH1 0x1 PUSH1 0x20 MSTORE DUP2 PUSH0 MSTORE PUSH1 0x40 PUSH0 KECCAK256 DUP2 DUP2 SLOAD DUP2 LT PUSH2 0x103 JUMPI PUSH0 DUP1 REVERT JUMPDEST SWAP1 PUSH0 MSTORE PUSH1 0x20 PUSH0 KECCAK256 SWAP1 PUSH1 0x3 MUL ADD PUSH0 SWAP2 POP SWAP2 POP POP DUP1 PUSH0 ADD SLOAD SWAP1 DUP1 PUSH1 0x1 ADD SLOAD SWAP1 DUP1 PUSH1 0x2 ADD DUP1 SLOAD PUSH2 0x12F SWAP1 PUSH2 0xAE7 JUMP JUMPDEST DUP1 PUSH1 0x1F ADD PUSH1 0x20 DUP1 SWAP2 DIV MUL PUSH1 0x20 ADD PUSH1 0x40 MLOAD SWAP1 DUP2 ADD PUSH1 0x40 MSTORE DUP1 SWAP3 SWAP2 SWAP1 DUP2 DUP2 MSTORE PUSH1 0x20 ADD DUP3 DUP1 SLOAD PUSH2 0x15B SWAP1 PUSH2 0xAE7 JUMP JUMPDEST DUP1 ISZERO PUSH2 0x1A6 JUMPI DUP1 PUSH1 0x1F LT PUSH2 0x17D JUMPI PUSH2 0x100 DUP1 DUP4 SLOAD DIV MUL DUP4 MSTORE SWAP2 PUSH1 0x20 ADD SWAP2 PUSH2 0x1A6 JUMP JUMPDEST DUP3 ADD SWAP2 SWAP1 PUSH0 MSTORE PUSH1 0x20 PUSH0 KECCAK256 SWAP1 JUMPDEST DUP2 SLOAD DUP2 MSTORE SWAP1 PUSH1 0x1 ADD SWAP1 PUSH1 0x20 ADD DUP1 DUP4 GT PUSH2 0x189 JUMPI DUP3 SWAP1 SUB PUSH1 0x1F AND DUP3 ADD SWAP2 JUMPDEST POP POP POP POP POP SWAP1 POP DUP4 JUMP JUMPDEST PUSH0 DUP1 SLOAD SWAP1 PUSH2 0x100 EXP SWAP1 DIV PUSH20 0xFFFFFFFFFFFFFFFFFFFFFFFFFFFFFFFFFFFFFFFF AND PUSH20 0xFFFFFFFFFFFFFFFFFFFFFFFFFFFFFFFFFFFFFFFF AND CALLER PUSH20 0xFFFFFFFFFFFFFFFFFFFFFFFFFFFFFFFFFFFFFFFF AND EQ PUSH2 0x23D JUMPI PUSH1 0x40 MLOAD PUSH32 0x8C379A000000000000000000000000000000000000000000000000000000000 DUP2 MSTORE PUSH1 0x4 ADD PUSH2 0x234 SWAP1 PUSH2 0xB87 JUMP JUMPDEST PUSH1 0x40 MLOAD DUP1 SWAP2 SUB SWAP1 REVERT JUMPDEST PUSH0 PUSH20 0xFFFFFFFFFFFFFFFFFFFFFFFFFFFFFFFFFFFFFFFF AND DUP4 PUSH20 0xFFFFFFFFFFFFFFFFFFFFFFFFFFFFFFFFFFFFFFFF AND SUB PUSH2 0x2AB JUMPI PUSH1 0x40 MLOAD PUSH32 0x8C379A000000000000000000000000000000000000000000000000000000000 DUP2 MSTORE PUSH1 0x4 ADD PUSH2 0x2A2 SWAP1 PUSH2 0xBEF JUMP JUMPDEST PUSH1 0x40 MLOAD DUP1 SWAP2 SUB SWAP1 REVERT JUMPDEST PUSH0 DUP3 GT PUSH2 0x2ED JUMPI PUSH1 0x40 MLOAD PUSH32 0x8C379A000000000000000000000000000000000000000000000000000000000 DUP2 MSTORE PUSH1 0x4 ADD PUSH2 0x2E4 SWAP1 PUSH2 0xC57 JUMP JUMPDEST PUSH1 0x40 MLOAD DUP1 SWAP2 SUB SWAP1 REVERT JUMPDEST PUSH1 0x1 PUSH0 DUP5 PUSH20 0xFFFFFFFFFFFFFFFFFFFFFFFFFFFFFFFFFFFFFFFF AND PUSH20 0xFFFFFFFFFFFFFFFFFFFFFFFFFFFFFFFFFFFFFFFF AND DUP2 MSTORE PUSH1 0x20 ADD SWAP1 DUP2 MSTORE PUSH1 0x20 ADD PUSH0 KECCAK256 PUSH1 0x40 MLOAD DUP1 PUSH1 0x60 ADD PUSH1 0x40 MSTORE DUP1 DUP5 DUP2 MSTORE PUSH1 0x20 ADD TIMESTAMP DUP2 MSTORE PUSH1 0x20 ADD DUP4 DUP2 MSTORE POP SWAP1 DUP1 PUSH1 0x1 DUP2 SLOAD ADD DUP1 DUP3 SSTORE DUP1 SWAP2 POP POP PUSH1 0x1 SWAP1 SUB SWAP1 PUSH0 MSTORE PUSH1 0x20 PUSH0 KECCAK256 SWAP1 PUSH1 0x3 MUL ADD PUSH0 SWAP1 SWAP2 SWAP1 SWAP2 SWAP1 SWAP2 POP PUSH0 DUP3 ADD MLOAD DUP2 PUSH0 ADD SSTORE PUSH1 0x20 DUP3 ADD MLOAD DUP2 PUSH1 0x1 ADD SSTORE PUSH1 0x40 DUP3 ADD MLOAD DUP2 PUSH1 0x2 ADD SWAP1 DUP2 PUSH2 0x392 SWAP2 SWAP1 PUSH2 0xE12 JUMP JUMPDEST POP POP POP DUP3 PUSH20 0xFFFFFFFFFFFFFFFFFFFFFFFFFFFFFFFFFFFFFFFF AND PUSH32 0x7B17D2B21D26FD2C5216C25A3DE30BF791DE2BF06A5EF118EAAF268E708429F9 DUP4 DUP4 TIMESTAMP PUSH1 0x40 MLOAD PUSH2 0x3DF SWAP4 SWAP3 SWAP2 SWAP1 PUSH2 0xEE1 JUMP JUMPDEST PUSH1 0x40 MLOAD DUP1 SWAP2 SUB SWAP1 LOG2 POP POP POP JUMP JUMPDEST PUSH0 DUP1 SLOAD SWAP1 PUSH2 0x100 EXP SWAP1 DIV PUSH20 0xFFFFFFFFFFFFFFFFFFFFFFFFFFFFFFFFFFFFFFFF AND DUP2 JUMP JUMPDEST PUSH1 0x60 PUSH0 PUSH20 0xFFFFFFFFFFFFFFFFFFFFFFFFFFFFFFFFFFFFFFFF AND DUP3 PUSH20 0xFFFFFFFFFFFFFFFFFFFFFFFFFFFFFFFFFFFFFFFF AND SUB PUSH2 0x47F JUMPI PUSH1 0x40 MLOAD PUSH32 0x8C379A000000000000000000000000000000000000000000000000000000000 DUP2 MSTORE PUSH1 0x4 ADD PUSH2 0x476 SWAP1 PUSH2 0xBEF JUMP JUMPDEST PUSH1 0x40 MLOAD DUP1 SWAP2 SUB SWAP1 REVERT JUMPDEST PUSH1 0x1 PUSH0 DUP4 PUSH20 0xFFFFFFFFFFFFFFFFFFFFFFFFFFFFFFFFFFFFFFFF AND PUSH20 0xFFFFFFFFFFFFFFFFFFFFFFFFFFFFFFFFFFFFFFFF AND DUP2 MSTORE PUSH1 0x20 ADD SWAP1 DUP2 MSTORE PUSH1 0x20 ADD PUSH0 KECCAK256 DUP1 SLOAD DUP1 PUSH1 0x20 MUL PUSH1 0x20 ADD PUSH1 0x40 MLOAD SWAP1 DUP2 ADD PUSH1 0x40 MSTORE DUP1 SWAP3 SWAP2 SWAP1 DUP2 DUP2 MSTORE PUSH1 0x20 ADD PUSH0 SWAP1 JUMPDEST DUP3 DUP3 LT ISZERO PUSH2 0x5AE JUMPI DUP4 DUP3 SWAP1 PUSH0 MSTORE PUSH1 0x20 PUSH0 KECCAK256 SWAP1 PUSH1 0x3 MUL ADD PUSH1 0x40 MLOAD DUP1 PUSH1 0x60 ADD PUSH1 0x40 MSTORE SWAP1 DUP2 PUSH0 DUP3 ADD SLOAD DUP2 MSTORE PUSH1 0x20 ADD PUSH1 0x1 DUP3 ADD SLOAD DUP2 MSTORE PUSH1 0x20 ADD PUSH1 0x2 DUP3 ADD DUP1 SLOAD PUSH2 0x51F SWAP1 PUSH2 0xAE7 JUMP JUMPDEST DUP1 PUSH1 0x1F ADD PUSH1 0x20 DUP1 SWAP2 DIV MUL PUSH1 0x20 ADD PUSH1 0x40 MLOAD SWAP1 DUP2 ADD PUSH1 0x40 MSTORE DUP1 SWAP3 SWAP2 SWAP1 DUP2 DUP2 MSTORE PUSH1 0x20 ADD DUP3 DUP1 SLOAD PUSH2 0x54B SWAP1 PUSH2 0xAE7 JUMP JUMPDEST DUP1 ISZERO PUSH2 0x596 JUMPI DUP1 PUSH1 0x1F LT PUSH2 0x56D JUMPI PUSH2 0x100 DUP1 DUP4 SLOAD DIV MUL DUP4 MSTORE SWAP2 PUSH1 0x20 ADD SWAP2 PUSH2 0x596 JUMP JUMPDEST DUP3 ADD SWAP2 SWAP1 PUSH0 MSTORE PUSH1 0x20 PUSH0 KECCAK256 SWAP1 JUMPDEST DUP2 SLOAD DUP2 MSTORE SWAP1 PUSH1 0x1 ADD SWAP1 PUSH1 0x20 ADD DUP1 DUP4 GT PUSH2 0x579 JUMPI DUP3 SWAP1 SUB PUSH1 0x1F AND DUP3 ADD SWAP2 JUMPDEST POP POP POP POP POP DUP2 MSTORE POP POP DUP2 MSTORE PUSH1 0x20 ADD SWAP1 PUSH1 0x1 ADD SWAP1 PUSH2 0x4DB JUMP JUMPDEST POP POP POP POP SWAP1 POP SWAP2 SWAP1 POP JUMP JUMPDEST PUSH0 PUSH1 0x40 MLOAD SWAP1 POP SWAP1 JUMP JUMPDEST PUSH0 DUP1 REVERT JUMPDEST PUSH0 DUP1 REVERT JUMPDEST PUSH0 PUSH20 0xFFFFFFFFFFFFFFFFFFFFFFFFFFFFFFFFFFFFFFFF DUP3 AND SWAP1 POP SWAP2 SWAP1 POP JUMP JUMPDEST PUSH0 PUSH2 0x5F3 DUP3 PUSH2 0x5CA JUMP JUMPDEST SWAP1 POP SWAP2 SWAP1 POP JUMP JUMPDEST PUSH2 0x603 DUP2 PUSH2 0x5E9 JUMP JUMPDEST DUP2 EQ PUSH2 0x60D JUMPI PUSH0 DUP1 REVERT JUMPDEST POP JUMP JUMPDEST PUSH0 DUP2 CALLDATALOAD SWAP1 POP PUSH2 0x61E DUP2 PUSH2 0x5FA JUMP JUMPDEST SWAP3 SWAP2 POP POP JUMP JUMPDEST PUSH0 DUP2 SWAP1 POP SWAP2 SWAP1 POP JUMP JUMPDEST PUSH2 0x636 DUP2 PUSH2 0x624 JUMP JUMPDEST DUP2 EQ PUSH2 0x640 JUMPI PUSH0 DUP1 REVERT JUMPDEST POP JUMP JUMPDEST PUSH0 DUP2 CALLDATALOAD SWAP1 POP PUSH2 0x651 DUP2 PUSH2 0x62D JUMP JUMPDEST SWAP3 SWAP2 POP POP JUMP JUMPDEST PUSH0 DUP1 PUSH1 0x40 DUP4 DUP6 SUB SLT ISZERO PUSH2 0x66D JUMPI PUSH2 0x66C PUSH2 0x5C2 JUMP JUMPDEST JUMPDEST PUSH0 PUSH2 0x67A DUP6 DUP3 DUP7 ADD PUSH2 0x610 JUMP JUMPDEST SWAP3 POP POP PUSH1 0x20 PUSH2 0x68B DUP6 DUP3 DUP7 ADD PUSH2 0x643 JUMP JUMPDEST SWAP2 POP POP SWAP3 POP SWAP3 SWAP1 POP JUMP JUMPDEST PUSH2 0x69E DUP2 PUSH2 0x624 JUMP JUMPDEST DUP3 MSTORE POP POP JUMP JUMPDEST PUSH0 DUP2 MLOAD SWAP1 POP SWAP2 SWAP1 POP JUMP JUMPDEST PUSH0 DUP3 DUP3 MSTORE PUSH1 0x20 DUP3 ADD SWAP1 POP SWAP3 SWAP2 POP POP JUMP JUMPDEST DUP3 DUP2 DUP4 MCOPY PUSH0 DUP4 DUP4 ADD MSTORE POP POP POP JUMP JUMPDEST PUSH0 PUSH1 0x1F NOT PUSH1 0x1F DUP4 ADD AND SWAP1 POP SWAP2 SWAP1 POP JUMP JUMPDEST PUSH0 PUSH2 0x6E6 DUP3 PUSH2 0x6A4 JUMP JUMPDEST PUSH2 0x6F0 DUP2 DUP6 PUSH2 0x6AE JUMP JUMPDEST SWAP4 POP PUSH2 0x700 DUP2 DUP6 PUSH1 0x20 DUP7 ADD PUSH2 0x6BE JUMP JUMPDEST PUSH2 0x709 DUP2 PUSH2 0x6CC JUMP JUMPDEST DUP5 ADD SWAP2 POP POP SWAP3 SWAP2 POP POP JUMP JUMPDEST PUSH0 PUSH1 0x60 DUP3 ADD SWAP1 POP PUSH2 0x727 PUSH0 DUP4 ADD DUP7 PUSH2 0x695 JUMP JUMPDEST PUSH2 0x734 PUSH1 0x20 DUP4 ADD DUP6 PUSH2 0x695 JUMP JUMPDEST DUP2 DUP2 SUB PUSH1 0x40 DUP4 ADD MSTORE PUSH2 0x746 DUP2 DUP5 PUSH2 0x6DC JUMP JUMPDEST SWAP1 POP SWAP5 SWAP4 POP POP POP POP JUMP JUMPDEST PUSH0 DUP1 REVERT JUMPDEST PUSH0 DUP1 REVERT JUMPDEST PUSH32 0x4E487B7100000000000000000000000000000000000000000000000000000000 PUSH0 MSTORE PUSH1 0x41 PUSH1 0x4 MSTORE PUSH1 0x24 PUSH0 REVERT JUMPDEST PUSH2 0x78E DUP3 PUSH2 0x6CC JUMP JUMPDEST DUP2 ADD DUP2 DUP2 LT PUSH8 0xFFFFFFFFFFFFFFFF DUP3 GT OR ISZERO PUSH2 0x7AD JUMPI PUSH2 0x7AC PUSH2 0x758 JUMP JUMPDEST JUMPDEST DUP1 PUSH1 0x40 MSTORE POP POP POP JUMP JUMPDEST PUSH0 PUSH2 0x7BF PUSH2 0x5B9 JUMP JUMPDEST SWAP1 POP PUSH2 0x7CB DUP3 DUP3 PUSH2 0x785 JUMP JUMPDEST SWAP2 SWAP1 POP JUMP JUMPDEST PUSH0 PUSH8 0xFFFFFFFFFFFFFFFF DUP3 GT ISZERO PUSH2 0x7EA JUMPI PUSH2 0x7E9 PUSH2 0x758 JUMP JUMPDEST JUMPDEST PUSH2 0x7F3 DUP3 PUSH2 0x6CC JUMP JUMPDEST SWAP1 POP PUSH1 0x20 DUP2 ADD SWAP1 POP SWAP2 SWAP1 POP JUMP JUMPDEST DUP3 DUP2 DUP4 CALLDATACOPY PUSH0 DUP4 DUP4 ADD MSTORE POP POP POP JUMP JUMPDEST PUSH0 PUSH2 0x820 PUSH2 0x81B DUP5 PUSH2 0x7D0 JUMP JUMPDEST PUSH2 0x7B6 JUMP JUMPDEST SWAP1 POP DUP3 DUP2 MSTORE PUSH1 0x20 DUP2 ADD DUP5 DUP5 DUP5 ADD GT ISZERO PUSH2 0x83C JUMPI PUSH2 0x83B PUSH2 0x754 JUMP JUMPDEST JUMPDEST PUSH2 0x847 DUP5 DUP3 DUP6 PUSH2 0x800 JUMP JUMPDEST POP SWAP4 SWAP3 POP POP POP JUMP JUMPDEST PUSH0 DUP3 PUSH1 0x1F DUP4 ADD SLT PUSH2 0x863 JUMPI PUSH2 0x862 PUSH2 0x750 JUMP JUMPDEST JUMPDEST DUP2 CALLDATALOAD PUSH2 0x873 DUP5 DUP3 PUSH1 0x20 DUP7 ADD PUSH2 0x80E JUMP JUMPDEST SWAP2 POP POP SWAP3 SWAP2 POP POP JUMP JUMPDEST PUSH0 DUP1 PUSH0 PUSH1 0x60 DUP5 DUP7 SUB SLT ISZERO PUSH2 0x893 JUMPI PUSH2 0x892 PUSH2 0x5C2 JUMP JUMPDEST JUMPDEST PUSH0 PUSH2 0x8A0 DUP7 DUP3 DUP8 ADD PUSH2 0x610 JUMP JUMPDEST SWAP4 POP POP PUSH1 0x20 PUSH2 0x8B1 DUP7 DUP3 DUP8 ADD PUSH2 0x643 JUMP JUMPDEST SWAP3 POP POP PUSH1 0x40 DUP5 ADD CALLDATALOAD PUSH8 0xFFFFFFFFFFFFFFFF DUP2 GT ISZERO PUSH2 0x8D2 JUMPI PUSH2 0x8D1 PUSH2 0x5C6 JUMP JUMPDEST JUMPDEST PUSH2 0x8DE DUP7 DUP3 DUP8 ADD PUSH2 0x84F JUMP JUMPDEST SWAP2 POP POP SWAP3 POP SWAP3 POP SWAP3 JUMP JUMPDEST PUSH2 0x8F1 DUP2 PUSH2 0x5E9 JUMP JUMPDEST DUP3 MSTORE POP POP JUMP JUMPDEST PUSH0 PUSH1 0x20 DUP3 ADD SWAP1 POP PUSH2 0x90A PUSH0 DUP4 ADD DUP5 PUSH2 0x8E8 JUMP JUMPDEST SWAP3 SWAP2 POP POP JUMP JUMPDEST PUSH0 PUSH1 0x20 DUP3 DUP5 SUB SLT ISZERO PUSH2 0x925 JUMPI PUSH2 0x924 PUSH2 0x5C2 JUMP JUMPDEST JUMPDEST PUSH0 PUSH2 0x932 DUP5 DUP3 DUP6 ADD PUSH2 0x610 JUMP JUMPDEST SWAP2 POP POP SWAP3 SWAP2 POP POP JUMP JUMPDEST PUSH0 DUP2 MLOAD SWAP1 POP SWAP2 SWAP1 POP JUMP JUMPDEST PUSH0 DUP3 DUP3 MSTORE PUSH1 0x20 DUP3 ADD SWAP1 POP SWAP3 SWAP2 POP POP JUMP JUMPDEST PUSH0 DUP2 SWAP1 POP PUSH1 0x20 DUP3 ADD SWAP1 POP SWAP2 SWAP1 POP JUMP JUMPDEST PUSH2 0x96D DUP2 PUSH2 0x624 JUMP JUMPDEST DUP3 MSTORE POP POP JUMP JUMPDEST PUSH0 DUP3 DUP3 MSTORE PUSH1 0x20 DUP3 ADD SWAP1 POP SWAP3 SWAP2 POP POP JUMP JUMPDEST PUSH0 PUSH2 0x98D DUP3 PUSH2 0x6A4 JUMP JUMPDEST PUSH2 0x997 DUP2 DUP6 PUSH2 0x973 JUMP JUMPDEST SWAP4 POP PUSH2 0x9A7 DUP2 DUP6 PUSH1 0x20 DUP7 ADD PUSH2 0x6BE JUMP JUMPDEST PUSH2 0x9B0 DUP2 PUSH2 0x6CC JUMP JUMPDEST DUP5 ADD SWAP2 POP POP SWAP3 SWAP2 POP POP JUMP JUMPDEST PUSH0 PUSH1 0x60 DUP4 ADD PUSH0 DUP4 ADD MLOAD PUSH2 0x9D0 PUSH0 DUP7 ADD DUP3 PUSH2 0x964 JUMP JUMPDEST POP PUSH1 0x20 DUP4 ADD MLOAD PUSH2 0x9E3 PUSH1 0x20 DUP7 ADD DUP3 PUSH2 0x964 JUMP JUMPDEST POP PUSH1 0x40 DUP4 ADD MLOAD DUP5 DUP3 SUB PUSH1 0x40 DUP7 ADD MSTORE PUSH2 0x9FB DUP3 DUP3 PUSH2 0x983 JUMP JUMPDEST SWAP2 POP POP DUP1 SWAP2 POP POP SWAP3 SWAP2 POP POP JUMP JUMPDEST PUSH0 PUSH2 0xA13 DUP4 DUP4 PUSH2 0x9BB JUMP JUMPDEST SWAP1 POP SWAP3 SWAP2 POP POP JUMP JUMPDEST PUSH0 PUSH1 0x20 DUP3 ADD SWAP1 POP SWAP2 SWAP1 POP JUMP JUMPDEST PUSH0 PUSH2 0xA31 DUP3 PUSH2 0x93B JUMP JUMPDEST PUSH2 0xA3B DUP2 DUP6 PUSH2 0x945 JUMP JUMPDEST SWAP4 POP DUP4 PUSH1 0x20 DUP3 MUL DUP6 ADD PUSH2 0xA4D DUP6 PUSH2 0x955 JUMP JUMPDEST DUP1 PUSH0 JUMPDEST DUP6 DUP2 LT ISZERO PUSH2 0xA88 JUMPI DUP5 DUP5 SUB DUP10 MSTORE DUP2 MLOAD PUSH2 0xA69 DUP6 DUP3 PUSH2 0xA08 JUMP JUMPDEST SWAP5 POP PUSH2 0xA74 DUP4 PUSH2 0xA1B JUMP JUMPDEST SWAP3 POP PUSH1 0x20 DUP11 ADD SWAP10 POP POP PUSH1 0x1 DUP2 ADD SWAP1 POP PUSH2 0xA50 JUMP JUMPDEST POP DUP3 SWAP8 POP DUP8 SWAP6 POP POP POP POP POP POP SWAP3 SWAP2 POP POP JUMP JUMPDEST PUSH0 PUSH1 0x20 DUP3 ADD SWAP1 POP DUP2 DUP2 SUB PUSH0 DUP4 ADD MSTORE PUSH2 0xAB2 DUP2 DUP5 PUSH2 0xA27 JUMP JUMPDEST SWAP1 POP SWAP3 SWAP2 POP POP JUMP JUMPDEST PUSH32 0x4E487B7100000000000000000000000000000000000000000000000000000000 PUSH0 MSTORE PUSH1 0x22 PUSH1 0x4 MSTORE PUSH1 0x24 PUSH0 REVERT JUMPDEST PUSH0 PUSH1 0x2 DUP3 DIV SWAP1 POP PUSH1 0x1 DUP3 AND DUP1 PUSH2 0xAFE JUMPI PUSH1 0x7F DUP3 AND SWAP2 POP JUMPDEST PUSH1 0x20 DUP3 LT DUP2 SUB PUSH2 0xB11 JUMPI PUSH2 0xB10 PUSH2 0xABA JUMP JUMPDEST JUMPDEST POP SWAP2 SWAP1 POP JUMP JUMPDEST PUSH32 0x4F6E6C7920746865206F776E65722063616E20616C6C6F636174652066756E64 PUSH0 DUP3 ADD MSTORE PUSH32 0x7300000000000000000000000000000000000000000000000000000000000000 PUSH1 0x20 DUP3 ADD MSTORE POP JUMP JUMPDEST PUSH0 PUSH2 0xB71 PUSH1 0x21 DUP4 PUSH2 0x6AE JUMP JUMPDEST SWAP2 POP PUSH2 0xB7C DUP3 PUSH2 0xB17 JUMP JUMPDEST PUSH1 0x40 DUP3 ADD SWAP1 POP SWAP2 SWAP1 POP JUMP JUMPDEST PUSH0 PUSH1 0x20 DUP3 ADD SWAP1 POP DUP2 DUP2 SUB PUSH0 DUP4 ADD MSTORE PUSH2 0xB9E DUP2 PUSH2 0xB65 JUMP JUMPDEST SWAP1 POP SWAP2 SWAP1 POP JUMP JUMPDEST PUSH32 0x496E76616C696420726563697069656E74206164647265737300000000000000 PUSH0 DUP3 ADD MSTORE POP JUMP JUMPDEST PUSH0 PUSH2 0xBD9 PUSH1 0x19 DUP4 PUSH2 0x6AE JUMP JUMPDEST SWAP2 POP PUSH2 0xBE4 DUP3 PUSH2 0xBA5 JUMP JUMPDEST PUSH1 0x20 DUP3 ADD SWAP1 POP SWAP2 SWAP1 POP JUMP JUMPDEST PUSH0 PUSH1 0x20 DUP3 ADD SWAP1 POP DUP2 DUP2 SUB PUSH0 DUP4 ADD MSTORE PUSH2 0xC06 DUP2 PUSH2 0xBCD JUMP JUMPDEST SWAP1 POP SWAP2 SWAP1 POP JUMP JUMPDEST PUSH32 0x416D6F756E74206D7573742062652067726561746572207468616E207A65726F PUSH0 DUP3 ADD MSTORE POP JUMP JUMPDEST PUSH0 PUSH2 0xC41 PUSH1 0x20 DUP4 PUSH2 0x6AE JUMP JUMPDEST SWAP2 POP PUSH2 0xC4C DUP3 PUSH2 0xC0D JUMP JUMPDEST PUSH1 0x20 DUP3 ADD SWAP1 POP SWAP2 SWAP1 POP JUMP JUMPDEST PUSH0 PUSH1 0x20 DUP3 ADD SWAP1 POP DUP2 DUP2 SUB PUSH0 DUP4 ADD MSTORE PUSH2 0xC6E DUP2 PUSH2 0xC35 JUMP JUMPDEST SWAP1 POP SWAP2 SWAP1 POP JUMP JUMPDEST PUSH0 DUP2 SWAP1 POP DUP2 PUSH0 MSTORE PUSH1 0x20 PUSH0 KECCAK256 SWAP1 POP SWAP2 SWAP1 POP JUMP JUMPDEST PUSH0 PUSH1 0x20 PUSH1 0x1F DUP4 ADD DIV SWAP1 POP SWAP2 SWAP1 POP JUMP JUMPDEST PUSH0 DUP3 DUP3 SHL SWAP1 POP SWAP3 SWAP2 POP POP JUMP JUMPDEST PUSH0 PUSH1 0x8 DUP4 MUL PUSH2 0xCD1 PUSH32 0xFFFFFFFFFFFFFFFFFFFFFFFFFFFFFFFFFFFFFFFFFFFFFFFFFFFFFFFFFFFFFFFF DUP3 PUSH2 0xC96 JUMP JUMPDEST PUSH2 0xCDB DUP7 DUP4 PUSH2 0xC96 JUMP JUMPDEST SWAP6 POP DUP1 NOT DUP5 AND SWAP4 POP DUP1 DUP7 AND DUP5 OR SWAP3 POP POP POP SWAP4 SWAP3 POP POP POP JUMP JUMPDEST PUSH0 DUP2 SWAP1 POP SWAP2 SWAP1 POP JUMP JUMPDEST PUSH0 PUSH2 0xD16 PUSH2 0xD11 PUSH2 0xD0C DUP5 PUSH2 0x624 JUMP JUMPDEST PUSH2 0xCF3 JUMP JUMPDEST PUSH2 0x624 JUMP JUMPDEST SWAP1 POP SWAP2 SWAP1 POP JUMP JUMPDEST PUSH0 DUP2 SWAP1 POP SWAP2 SWAP1 POP JUMP JUMPDEST PUSH2 0xD2F DUP4 PUSH2 0xCFC JUMP JUMPDEST PUSH2 0xD43 PUSH2 0xD3B DUP3 PUSH2 0xD1D JUMP JUMPDEST DUP5 DUP5 SLOAD PUSH2 0xCA2 JUMP JUMPDEST DUP3 SSTORE POP POP POP POP JUMP JUMPDEST PUSH0 SWAP1 JUMP JUMPDEST PUSH2 0xD57 PUSH2 0xD4B JUMP JUMPDEST PUSH2 0xD62 DUP2 DUP5 DUP5 PUSH2 0xD26 JUMP JUMPDEST POP POP POP JUMP JUMPDEST JUMPDEST DUP2 DUP2 LT ISZERO PUSH2 0xD85 JUMPI PUSH2 0xD7A PUSH0 DUP3 PUSH2 0xD4F JUMP JUMPDEST PUSH1 0x1 DUP2 ADD SWAP1 POP PUSH2 0xD68 JUMP JUMPDEST POP POP JUMP JUMPDEST PUSH1 0x1F DUP3 GT ISZERO PUSH2 0xDCA JUMPI PUSH2 0xD9B DUP2 PUSH2 0xC75 JUMP JUMPDEST PUSH2 0xDA4 DUP5 PUSH2 0xC87 JUMP JUMPDEST DUP2 ADD PUSH1 0x20 DUP6 LT ISZERO PUSH2 0xDB3 JUMPI DUP2 SWAP1 POP JUMPDEST PUSH2 0xDC7 PUSH2 0xDBF DUP6 PUSH2 0xC87 JUMP JUMPDEST DUP4 ADD DUP3 PUSH2 0xD67 JUMP JUMPDEST POP POP JUMPDEST POP POP POP JUMP JUMPDEST PUSH0 DUP3 DUP3 SHR SWAP1 POP SWAP3 SWAP2 POP POP JUMP JUMPDEST PUSH0 PUSH2 0xDEA PUSH0 NOT DUP5 PUSH1 0x8 MUL PUSH2 0xDCF JUMP JUMPDEST NOT DUP1 DUP4 AND SWAP2 POP POP SWAP3 SWAP2 POP POP JUMP JUMPDEST PUSH0 PUSH2 0xE02 DUP4 DUP4 PUSH2 0xDDB JUMP JUMPDEST SWAP2 POP DUP3 PUSH1 0x2 MUL DUP3 OR SWAP1 POP SWAP3 SWAP2 POP POP JUMP JUMPDEST PUSH2 0xE1B DUP3 PUSH2 0x6A4 JUMP JUMPDEST PUSH8 0xFFFFFFFFFFFFFFFF DUP2 GT ISZERO PUSH2 0xE34 JUMPI PUSH2 0xE33 PUSH2 0x758 JUMP JUMPDEST JUMPDEST PUSH2 0xE3E DUP3 SLOAD PUSH2 0xAE7 JUMP JUMPDEST PUSH2 0xE49 DUP3 DUP3 DUP6 PUSH2 0xD89 JUMP JUMPDEST PUSH0 PUSH1 0x20 SWAP1 POP PUSH1 0x1F DUP4 GT PUSH1 0x1 DUP2 EQ PUSH2 0xE7A JUMPI PUSH0 DUP5 ISZERO PUSH2 0xE68 JUMPI DUP3 DUP8 ADD MLOAD SWAP1 POP JUMPDEST PUSH2 0xE72 DUP6 DUP3 PUSH2 0xDF7 JUMP JUMPDEST DUP7 SSTORE POP PUSH2 0xED9 JUMP JUMPDEST PUSH1 0x1F NOT DUP5 AND PUSH2 0xE88 DUP7 PUSH2 0xC75 JUMP JUMPDEST PUSH0 JUMPDEST DUP3 DUP2 LT ISZERO PUSH2 0xEAF JUMPI DUP5 DUP10 ADD MLOAD DUP3 SSTORE PUSH1 0x1 DUP3 ADD SWAP2 POP PUSH1 0x20 DUP6 ADD SWAP5 POP PUSH1 0x20 DUP2 ADD SWAP1 POP PUSH2 0xE8A JUMP JUMPDEST DUP7 DUP4 LT ISZERO PUSH2 0xECC JUMPI DUP5 DUP10 ADD MLOAD PUSH2 0xEC8 PUSH1 0x1F DUP10 AND DUP3 PUSH2 0xDDB JUMP JUMPDEST DUP4 SSTORE POP JUMPDEST PUSH1 0x1 PUSH1 0x2 DUP9 MUL ADD DUP9 SSTORE POP POP POP JUMPDEST POP POP POP POP POP POP JUMP JUMPDEST PUSH0 PUSH1 0x60 DUP3 ADD SWAP1 POP PUSH2 0xEF4 PUSH0 DUP4 ADD DUP7 PUSH2 0x695 JUMP JUMPDEST DUP2 DUP2 SUB PUSH1 0x20 DUP4 ADD MSTORE PUSH2 0xF06 DUP2 DUP6 PUSH2 0x6DC JUMP JUMPDEST SWAP1 POP PUSH2 0xF15 PUSH1 0x40 DUP4 ADD DUP5 PUSH2 0x695 JUMP JUMPDEST SWAP5 SWAP4 POP POP POP POP JUMP INVALID LOG2 PUSH5 0x6970667358 0x22 SLT KECCAK256 DELEGATECALL 0xF7 SIGNEXTEND PUSH17 0x78987EA638C00DB4E352D1CAE0CC7FB2C3 0xE1 0xB8 0xC7 0xB6 0xA8 SWAP13 PUSH7 0xA07D00CC64736F PUSH13 0x634300081A0033000000000000 "
		},
		"gasEstimates": {
			"creation": {
				"codeDepositCost": "784600",
				"executionCost": "25081",
				"totalCost": "809681"
			},
			"external": {
				"allocateFunds(address,uint256,string)": "infinite",
				"allocations(address,uint256)": "infinite",
				"owner()": "2527",
				"trackAllocation(address)": "infinite"
			}
		},
		"methodIdentifiers": {
			"allocateFunds(address,uint256,string)": "8ada7007",
			"allocations(address,uint256)": "010bc33c",
			"owner()": "8da5cb5b",
			"trackAllocation(address)": "dddf66c6"
		}
	},
	"abi": [
		{
			"inputs": [],
			"stateMutability": "nonpayable",
			"type": "constructor"
		},
		{
			"anonymous": false,
			"inputs": [
				{
					"indexed": true,
					"internalType": "address",
					"name": "recipient",
					"type": "address"
				},
				{
					"indexed": false,
					"internalType": "uint256",
					"name": "amount",
					"type": "uint256"
				},
				{
					"indexed": false,
					"internalType": "string",
					"name": "description",
					"type": "string"
				},
				{
					"indexed": false,
					"internalType": "uint256",
					"name": "timestamp",
					"type": "uint256"
				}
			],
			"name": "FundsAllocated",
			"type": "event"
		},
		{
			"inputs": [
				{
					"internalType": "address",
					"name": "recipient",
					"type": "address"
				},
				{
					"internalType": "uint256",
					"name": "amount",
					"type": "uint256"
				},
				{
					"internalType": "string",
					"name": "description",
					"type": "string"
				}
			],
			"name": "allocateFunds",
			"outputs": [],
			"stateMutability": "nonpayable",
			"type": "function"
		},
		{
			"inputs": [
				{
					"internalType": "address",
					"name": "",
					"type": "address"
				},
				{
					"internalType": "uint256",
					"name": "",
					"type": "uint256"
				}
			],
			"name": "allocations",
			"outputs": [
				{
					"internalType": "uint256",
					"name": "amount",
					"type": "uint256"
				},
				{
					"internalType": "uint256",
					"name": "timestamp",
					"type": "uint256"
				},
				{
					"internalType": "string",
					"name": "description",
					"type": "string"
				}
			],
			"stateMutability": "view",
			"type": "function"
		},
		{
			"inputs": [],
			"name": "owner",
			"outputs": [
				{
					"internalType": "address",
					"name": "",
					"type": "address"
				}
			],
			"stateMutability": "view",
			"type": "function"
		},
		{
			"inputs": [
				{
					"internalType": "address",
					"name": "recipient",
					"type": "address"
				}
			],
			"name": "trackAllocation",
			"outputs": [
				{
					"components": [
						{
							"internalType": "uint256",
							"name": "amount",
							"type": "uint256"
						},
						{
							"internalType": "uint256",
							"name": "timestamp",
							"type": "uint256"
						},
						{
							"internalType": "string",
							"name": "description",
							"type": "string"
						}
					],
					"internalType": "struct FundAllocationTracker.Allocation[]",
					"name": "",
					"type": "tuple[]"
				}
			],
			"stateMutability": "view",
			"type": "function"
		}
	]
}